{
  "contractName": "MockUSDT",
  "abi": [
    {
      "inputs": [],
      "stateMutability": "nonpayable",
      "type": "constructor"
    },
    {
      "inputs": [
        {
          "internalType": "address",
          "name": "spender",
          "type": "address"
        },
        {
          "internalType": "uint256",
          "name": "allowance",
          "type": "uint256"
        },
        {
          "internalType": "uint256",
          "name": "needed",
          "type": "uint256"
        }
      ],
      "name": "ERC20InsufficientAllowance",
      "type": "error"
    },
    {
      "inputs": [
        {
          "internalType": "address",
          "name": "sender",
          "type": "address"
        },
        {
          "internalType": "uint256",
          "name": "balance",
          "type": "uint256"
        },
        {
          "internalType": "uint256",
          "name": "needed",
          "type": "uint256"
        }
      ],
      "name": "ERC20InsufficientBalance",
      "type": "error"
    },
    {
      "inputs": [
        {
          "internalType": "address",
          "name": "approver",
          "type": "address"
        }
      ],
      "name": "ERC20InvalidApprover",
      "type": "error"
    },
    {
      "inputs": [
        {
          "internalType": "address",
          "name": "receiver",
          "type": "address"
        }
      ],
      "name": "ERC20InvalidReceiver",
      "type": "error"
    },
    {
      "inputs": [
        {
          "internalType": "address",
          "name": "sender",
          "type": "address"
        }
      ],
      "name": "ERC20InvalidSender",
      "type": "error"
    },
    {
      "inputs": [
        {
          "internalType": "address",
          "name": "spender",
          "type": "address"
        }
      ],
      "name": "ERC20InvalidSpender",
      "type": "error"
    },
    {
      "anonymous": false,
      "inputs": [
        {
          "indexed": true,
          "internalType": "address",
          "name": "owner",
          "type": "address"
        },
        {
          "indexed": true,
          "internalType": "address",
          "name": "spender",
          "type": "address"
        },
        {
          "indexed": false,
          "internalType": "uint256",
          "name": "value",
          "type": "uint256"
        }
      ],
      "name": "Approval",
      "type": "event"
    },
    {
      "anonymous": false,
      "inputs": [
        {
          "indexed": true,
          "internalType": "address",
          "name": "from",
          "type": "address"
        },
        {
          "indexed": true,
          "internalType": "address",
          "name": "to",
          "type": "address"
        },
        {
          "indexed": false,
          "internalType": "uint256",
          "name": "value",
          "type": "uint256"
        }
      ],
      "name": "Transfer",
      "type": "event"
    },
    {
      "inputs": [
        {
          "internalType": "address",
          "name": "owner",
          "type": "address"
        },
        {
          "internalType": "address",
          "name": "spender",
          "type": "address"
        }
      ],
      "name": "allowance",
      "outputs": [
        {
          "internalType": "uint256",
          "name": "",
          "type": "uint256"
        }
      ],
      "stateMutability": "view",
      "type": "function",
      "constant": true
    },
    {
      "inputs": [
        {
          "internalType": "address",
          "name": "spender",
          "type": "address"
        },
        {
          "internalType": "uint256",
          "name": "value",
          "type": "uint256"
        }
      ],
      "name": "approve",
      "outputs": [
        {
          "internalType": "bool",
          "name": "",
          "type": "bool"
        }
      ],
      "stateMutability": "nonpayable",
      "type": "function"
    },
    {
      "inputs": [
        {
          "internalType": "address",
          "name": "account",
          "type": "address"
        }
      ],
      "name": "balanceOf",
      "outputs": [
        {
          "internalType": "uint256",
          "name": "",
          "type": "uint256"
        }
      ],
      "stateMutability": "view",
      "type": "function",
      "constant": true
    },
    {
      "inputs": [],
      "name": "decimals",
      "outputs": [
        {
          "internalType": "uint8",
          "name": "",
          "type": "uint8"
        }
      ],
      "stateMutability": "view",
      "type": "function",
      "constant": true
    },
    {
      "inputs": [],
      "name": "initialSupply",
      "outputs": [
        {
          "internalType": "uint256",
          "name": "",
          "type": "uint256"
        }
      ],
      "stateMutability": "view",
      "type": "function",
      "constant": true
    },
    {
      "inputs": [],
      "name": "name",
      "outputs": [
        {
          "internalType": "string",
          "name": "",
          "type": "string"
        }
      ],
      "stateMutability": "view",
      "type": "function",
      "constant": true
    },
    {
      "inputs": [],
      "name": "symbol",
      "outputs": [
        {
          "internalType": "string",
          "name": "",
          "type": "string"
        }
      ],
      "stateMutability": "view",
      "type": "function",
      "constant": true
    },
    {
      "inputs": [],
      "name": "totalSupply",
      "outputs": [
        {
          "internalType": "uint256",
          "name": "",
          "type": "uint256"
        }
      ],
      "stateMutability": "view",
      "type": "function",
      "constant": true
    },
    {
      "inputs": [
        {
          "internalType": "address",
          "name": "to",
          "type": "address"
        },
        {
          "internalType": "uint256",
          "name": "value",
          "type": "uint256"
        }
      ],
      "name": "transfer",
      "outputs": [
        {
          "internalType": "bool",
          "name": "",
          "type": "bool"
        }
      ],
      "stateMutability": "nonpayable",
      "type": "function"
    },
    {
      "inputs": [
        {
          "internalType": "address",
          "name": "from",
          "type": "address"
        },
        {
          "internalType": "address",
          "name": "to",
          "type": "address"
        },
        {
          "internalType": "uint256",
          "name": "value",
          "type": "uint256"
        }
      ],
      "name": "transferFrom",
      "outputs": [
        {
          "internalType": "bool",
          "name": "",
          "type": "bool"
        }
      ],
      "stateMutability": "nonpayable",
      "type": "function"
    },
    {
      "inputs": [
        {
          "internalType": "address",
          "name": "to",
          "type": "address"
        },
        {
          "internalType": "uint256",
          "name": "amount",
          "type": "uint256"
        }
      ],
      "name": "mint",
      "outputs": [],
      "stateMutability": "nonpayable",
      "type": "function"
    }
  ],
  "bytecode": "0x60806040526100126100e360201b60201c565b60ff16600a61002191906104ee565b620f424061002f9190610538565b60055534801561003d575f5ffd5b506040518060400160405280600981526020017f4d6f636b205553445400000000000000000000000000000000000000000000008152506040518060400160405280600481526020017f555344540000000000000000000000000000000000000000000000000000000081525081600390816100b991906107ad565b5080600490816100c991906107ad565b5050506100de336005546100eb60201b60201c565b610964565b5f6012905090565b5f73ffffffffffffffffffffffffffffffffffffffff168273ffffffffffffffffffffffffffffffffffffffff160361015b575f6040517fec442f0500000000000000000000000000000000000000000000000000000000815260040161015291906108bb565b60405180910390fd5b61016c5f838361017060201b60201c565b5050565b5f73ffffffffffffffffffffffffffffffffffffffff168373ffffffffffffffffffffffffffffffffffffffff16036101c0578060025f8282546101b491906108d4565b9250508190555061028e565b5f5f5f8573ffffffffffffffffffffffffffffffffffffffff1673ffffffffffffffffffffffffffffffffffffffff1681526020019081526020015f2054905081811015610249578381836040517fe450d38c00000000000000000000000000000000000000000000000000000000815260040161024093929190610916565b60405180910390fd5b8181035f5f8673ffffffffffffffffffffffffffffffffffffffff1673ffffffffffffffffffffffffffffffffffffffff1681526020019081526020015f2081905550505b5f73ffffffffffffffffffffffffffffffffffffffff168273ffffffffffffffffffffffffffffffffffffffff16036102d5578060025f828254039250508190555061031f565b805f5f8473ffffffffffffffffffffffffffffffffffffffff1673ffffffffffffffffffffffffffffffffffffffff1681526020019081526020015f205f82825401925050819055505b8173ffffffffffffffffffffffffffffffffffffffff168373ffffffffffffffffffffffffffffffffffffffff167fddf252ad1be2c89b69c2b068fc378daa952ba7f163c4a11628f55a4df523b3ef8360405161037c919061094b565b60405180910390a3505050565b7f4e487b71000000000000000000000000000000000000000000000000000000005f52601160045260245ffd5b5f8160011c9050919050565b5f5f8291508390505b600185111561040b578086048111156103e7576103e6610389565b5b60018516156103f65780820291505b8081029050610404856103b6565b94506103cb565b94509492505050565b5f8261042357600190506104de565b81610430575f90506104de565b816001811461044657600281146104505761047f565b60019150506104de565b60ff84111561046257610461610389565b5b8360020a91508482111561047957610478610389565b5b506104de565b5060208310610133831016604e8410600b84101617156104b45782820a9050838111156104af576104ae610389565b5b6104de565b6104c184848460016103c2565b925090508184048111156104d8576104d7610389565b5b81810290505b9392505050565b5f819050919050565b5f6104f8826104e5565b9150610503836104e5565b92506105307fffffffffffffffffffffffffffffffffffffffffffffffffffffffffffffffff8484610414565b905092915050565b5f610542826104e5565b915061054d836104e5565b925082820261055b816104e5565b9150828204841483151761057257610571610389565b5b5092915050565b5f81519050919050565b7f4e487b71000000000000000000000000000000000000000000000000000000005f52604160045260245ffd5b7f4e487b71000000000000000000000000000000000000000000000000000000005f52602260045260245ffd5b5f60028204905060018216806105f457607f821691505b602082108103610607576106066105b0565b5b50919050565b5f819050815f5260205f209050919050565b5f6020601f8301049050919050565b5f82821b905092915050565b5f600883026106697fffffffffffffffffffffffffffffffffffffffffffffffffffffffffffffffff8261062e565b610673868361062e565b95508019841693508086168417925050509392505050565b5f819050919050565b5f6106ae6106a96106a4846104e5565b61068b565b6104e5565b9050919050565b5f819050919050565b6106c783610694565b6106db6106d3826106b5565b84845461063a565b825550505050565b5f5f905090565b6106f26106e3565b6106fd8184846106be565b505050565b5b81811015610720576107155f826106ea565b600181019050610703565b5050565b601f821115610765576107368161060d565b61073f8461061f565b8101602085101561074e578190505b61076261075a8561061f565b830182610702565b50505b505050565b5f82821c905092915050565b5f6107855f198460080261076a565b1980831691505092915050565b5f61079d8383610776565b9150826002028217905092915050565b6107b682610579565b67ffffffffffffffff8111156107cf576107ce610583565b5b6107d982546105dd565b6107e4828285610724565b5f60209050601f831160018114610815575f8415610803578287015190505b61080d8582610792565b865550610874565b601f1984166108238661060d565b5f5b8281101561084a57848901518255600182019150602085019450602081019050610825565b868310156108675784890151610863601f891682610776565b8355505b6001600288020188555050505b505050505050565b5f73ffffffffffffffffffffffffffffffffffffffff82169050919050565b5f6108a58261087c565b9050919050565b6108b58161089b565b82525050565b5f6020820190506108ce5f8301846108ac565b92915050565b5f6108de826104e5565b91506108e9836104e5565b925082820190508082111561090157610900610389565b5b92915050565b610910816104e5565b82525050565b5f6060820190506109295f8301866108ac565b6109366020830185610907565b6109436040830184610907565b949350505050565b5f60208201905061095e5f830184610907565b92915050565b610ec4806109715f395ff3fe608060405234801561000f575f5ffd5b50600436106100a7575f3560e01c8063378dc3dc1161006f578063378dc3dc1461016557806340c10f191461018357806370a082311461019f57806395d89b41146101cf578063a9059cbb146101ed578063dd62ed3e1461021d576100a7565b806306fdde03146100ab578063095ea7b3146100c957806318160ddd146100f957806323b872dd14610117578063313ce56714610147575b5f5ffd5b6100b361024d565b6040516100c09190610b3d565b60405180910390f35b6100e360048036038101906100de9190610bee565b6102dd565b6040516100f09190610c46565b60405180910390f35b6101016102ff565b60405161010e9190610c6e565b60405180910390f35b610131600480360381019061012c9190610c87565b610308565b60405161013e9190610c46565b60405180910390f35b61014f610336565b60405161015c9190610cf2565b60405180910390f35b61016d61033e565b60405161017a9190610c6e565b60405180910390f35b61019d60048036038101906101989190610bee565b610344565b005b6101b960048036038101906101b49190610d0b565b610352565b6040516101c69190610c6e565b60405180910390f35b6101d7610397565b6040516101e49190610b3d565b60405180910390f35b61020760048036038101906102029190610bee565b610427565b6040516102149190610c46565b60405180910390f35b61023760048036038101906102329190610d36565b610449565b6040516102449190610c6e565b60405180910390f35b60606003805461025c90610da1565b80601f016020809104026020016040519081016040528092919081815260200182805461028890610da1565b80156102d35780601f106102aa576101008083540402835291602001916102d3565b820191905f5260205f20905b8154815290600101906020018083116102b657829003601f168201915b5050505050905090565b5f5f6102e76104cb565b90506102f48185856104d2565b600191505092915050565b5f600254905090565b5f5f6103126104cb565b905061031f8582856104e4565b61032a858585610576565b60019150509392505050565b5f6012905090565b60055481565b61034e8282610666565b5050565b5f5f5f8373ffffffffffffffffffffffffffffffffffffffff1673ffffffffffffffffffffffffffffffffffffffff1681526020019081526020015f20549050919050565b6060600480546103a690610da1565b80601f01602080910402602001604051908101604052809291908181526020018280546103d290610da1565b801561041d5780601f106103f45761010080835404028352916020019161041d565b820191905f5260205f20905b81548152906001019060200180831161040057829003601f168201915b5050505050905090565b5f5f6104316104cb565b905061043e818585610576565b600191505092915050565b5f60015f8473ffffffffffffffffffffffffffffffffffffffff1673ffffffffffffffffffffffffffffffffffffffff1681526020019081526020015f205f8373ffffffffffffffffffffffffffffffffffffffff1673ffffffffffffffffffffffffffffffffffffffff1681526020019081526020015f2054905092915050565b5f33905090565b6104df83838360016106e5565b505050565b5f6104ef8484610449565b90507fffffffffffffffffffffffffffffffffffffffffffffffffffffffffffffffff81146105705781811015610561578281836040517ffb8f41b200000000000000000000000000000000000000000000000000000000815260040161055893929190610de0565b60405180910390fd5b61056f84848484035f6106e5565b5b50505050565b5f73ffffffffffffffffffffffffffffffffffffffff168373ffffffffffffffffffffffffffffffffffffffff16036105e6575f6040517f96c6fd1e0000000000000000000000000000000000000000000000000000000081526004016105dd9190610e15565b60405180910390fd5b5f73ffffffffffffffffffffffffffffffffffffffff168273ffffffffffffffffffffffffffffffffffffffff1603610656575f6040517fec442f0500000000000000000000000000000000000000000000000000000000815260040161064d9190610e15565b60405180910390fd5b6106618383836108b4565b505050565b5f73ffffffffffffffffffffffffffffffffffffffff168273ffffffffffffffffffffffffffffffffffffffff16036106d6575f6040517fec442f050000000000000000000000000000000000000000000000000000000081526004016106cd9190610e15565b60405180910390fd5b6106e15f83836108b4565b5050565b5f73ffffffffffffffffffffffffffffffffffffffff168473ffffffffffffffffffffffffffffffffffffffff1603610755575f6040517fe602df0500000000000000000000000000000000000000000000000000000000815260040161074c9190610e15565b60405180910390fd5b5f73ffffffffffffffffffffffffffffffffffffffff168373ffffffffffffffffffffffffffffffffffffffff16036107c5575f6040517f94280d620000000000000000000000000000000000000000000000000000000081526004016107bc9190610e15565b60405180910390fd5b8160015f8673ffffffffffffffffffffffffffffffffffffffff1673ffffffffffffffffffffffffffffffffffffffff1681526020019081526020015f205f8573ffffffffffffffffffffffffffffffffffffffff1673ffffffffffffffffffffffffffffffffffffffff1681526020019081526020015f208190555080156108ae578273ffffffffffffffffffffffffffffffffffffffff168473ffffffffffffffffffffffffffffffffffffffff167f8c5be1e5ebec7d5bd14f71427d1e84f3dd0314c0f7b2291e5b200ac8c7c3b925846040516108a59190610c6e565b60405180910390a35b50505050565b5f73ffffffffffffffffffffffffffffffffffffffff168373ffffffffffffffffffffffffffffffffffffffff1603610904578060025f8282546108f89190610e5b565b925050819055506109d2565b5f5f5f8573ffffffffffffffffffffffffffffffffffffffff1673ffffffffffffffffffffffffffffffffffffffff1681526020019081526020015f205490508181101561098d578381836040517fe450d38c00000000000000000000000000000000000000000000000000000000815260040161098493929190610de0565b60405180910390fd5b8181035f5f8673ffffffffffffffffffffffffffffffffffffffff1673ffffffffffffffffffffffffffffffffffffffff1681526020019081526020015f2081905550505b5f73ffffffffffffffffffffffffffffffffffffffff168273ffffffffffffffffffffffffffffffffffffffff1603610a19578060025f8282540392505081905550610a63565b805f5f8473ffffffffffffffffffffffffffffffffffffffff1673ffffffffffffffffffffffffffffffffffffffff1681526020019081526020015f205f82825401925050819055505b8173ffffffffffffffffffffffffffffffffffffffff168373ffffffffffffffffffffffffffffffffffffffff167fddf252ad1be2c89b69c2b068fc378daa952ba7f163c4a11628f55a4df523b3ef83604051610ac09190610c6e565b60405180910390a3505050565b5f81519050919050565b5f82825260208201905092915050565b8281835e5f83830152505050565b5f601f19601f8301169050919050565b5f610b0f82610acd565b610b198185610ad7565b9350610b29818560208601610ae7565b610b3281610af5565b840191505092915050565b5f6020820190508181035f830152610b558184610b05565b905092915050565b5f5ffd5b5f73ffffffffffffffffffffffffffffffffffffffff82169050919050565b5f610b8a82610b61565b9050919050565b610b9a81610b80565b8114610ba4575f5ffd5b50565b5f81359050610bb581610b91565b92915050565b5f819050919050565b610bcd81610bbb565b8114610bd7575f5ffd5b50565b5f81359050610be881610bc4565b92915050565b5f5f60408385031215610c0457610c03610b5d565b5b5f610c1185828601610ba7565b9250506020610c2285828601610bda565b9150509250929050565b5f8115159050919050565b610c4081610c2c565b82525050565b5f602082019050610c595f830184610c37565b92915050565b610c6881610bbb565b82525050565b5f602082019050610c815f830184610c5f565b92915050565b5f5f5f60608486031215610c9e57610c9d610b5d565b5b5f610cab86828701610ba7565b9350506020610cbc86828701610ba7565b9250506040610ccd86828701610bda565b9150509250925092565b5f60ff82169050919050565b610cec81610cd7565b82525050565b5f602082019050610d055f830184610ce3565b92915050565b5f60208284031215610d2057610d1f610b5d565b5b5f610d2d84828501610ba7565b91505092915050565b5f5f60408385031215610d4c57610d4b610b5d565b5b5f610d5985828601610ba7565b9250506020610d6a85828601610ba7565b9150509250929050565b7f4e487b71000000000000000000000000000000000000000000000000000000005f52602260045260245ffd5b5f6002820490506001821680610db857607f821691505b602082108103610dcb57610dca610d74565b5b50919050565b610dda81610b80565b82525050565b5f606082019050610df35f830186610dd1565b610e006020830185610c5f565b610e0d6040830184610c5f565b949350505050565b5f602082019050610e285f830184610dd1565b92915050565b7f4e487b71000000000000000000000000000000000000000000000000000000005f52601160045260245ffd5b5f610e6582610bbb565b9150610e7083610bbb565b9250828201905080821115610e8857610e87610e2e565b5b9291505056fea2646970667358221220db2e86ab8c6f52b5e7cf6c980f697629fc86d488c8a444ba8c91e84df469c2fa64736f6c634300081c0033",
  "immutableReferences": {},
  "source": "// SPDX-License-Identifier: MIT\r\npragma solidity  ^0.8.20;\r\n\r\nimport \"@openzeppelin/contracts/token/ERC20/ERC20.sol\";\r\n\r\ncontract MockUSDT is ERC20 {\r\n    // Define the total supply of the mock token\r\n    uint256 public initialSupply = 1000000 * (10 ** uint256(decimals()));\r\n\r\n    constructor() ERC20(\"Mock USDT\", \"USDT\") {\r\n        _mint(msg.sender, initialSupply);\r\n    }\r\n\r\n    // Allow minting additional tokens if needed for testing purposes\r\n    function mint(address to, uint256 amount) external {\r\n        _mint(to, amount);\r\n    }\r\n}",
  "sourcePath": "C:\\Users\\Doro_\\Documents\\projects\\mockUSDT\\contracts\\mockUSDT.sol",
  "compiler": {
    "name": "solc",
    "version": "0.8.28+commit.7893614a.Emscripten.clang"
  },
  "schemaVersion": "3.4.16",
  "updatedAt": "2024-11-02T19:37:34.064Z",
  "networkType": "ethereum",
  "devdoc": {
    "errors": {
      "ERC20InsufficientAllowance(address,uint256,uint256)": [
        {
          "details": "Indicates a failure with the `spender`s `allowance`. Used in transfers.",
          "params": {
            "allowance": "Amount of tokens a `spender` is allowed to operate with.",
            "needed": "Minimum amount required to perform a transfer.",
            "spender": "Address that may be allowed to operate on tokens without being their owner."
          }
        }
      ],
      "ERC20InsufficientBalance(address,uint256,uint256)": [
        {
          "details": "Indicates an error related to the current `balance` of a `sender`. Used in transfers.",
          "params": {
            "balance": "Current balance for the interacting account.",
            "needed": "Minimum amount required to perform a transfer.",
            "sender": "Address whose tokens are being transferred."
          }
        }
      ],
      "ERC20InvalidApprover(address)": [
        {
          "details": "Indicates a failure with the `approver` of a token to be approved. Used in approvals.",
          "params": {
            "approver": "Address initiating an approval operation."
          }
        }
      ],
      "ERC20InvalidReceiver(address)": [
        {
          "details": "Indicates a failure with the token `receiver`. Used in transfers.",
          "params": {
            "receiver": "Address to which tokens are being transferred."
          }
        }
      ],
      "ERC20InvalidSender(address)": [
        {
          "details": "Indicates a failure with the token `sender`. Used in transfers.",
          "params": {
            "sender": "Address whose tokens are being transferred."
          }
        }
      ],
      "ERC20InvalidSpender(address)": [
        {
          "details": "Indicates a failure with the `spender` to be approved. Used in approvals.",
          "params": {
            "spender": "Address that may be allowed to operate on tokens without being their owner."
          }
        }
      ]
    },
    "events": {
      "Approval(address,address,uint256)": {
        "details": "Emitted when the allowance of a `spender` for an `owner` is set by a call to {approve}. `value` is the new allowance."
      },
      "Transfer(address,address,uint256)": {
        "details": "Emitted when `value` tokens are moved from one account (`from`) to another (`to`). Note that `value` may be zero."
      }
    },
    "kind": "dev",
    "methods": {
      "allowance(address,address)": {
        "details": "See {IERC20-allowance}."
      },
      "approve(address,uint256)": {
        "details": "See {IERC20-approve}. NOTE: If `value` is the maximum `uint256`, the allowance is not updated on `transferFrom`. This is semantically equivalent to an infinite approval. Requirements: - `spender` cannot be the zero address."
      },
      "balanceOf(address)": {
        "details": "See {IERC20-balanceOf}."
      },
      "decimals()": {
        "details": "Returns the number of decimals used to get its user representation. For example, if `decimals` equals `2`, a balance of `505` tokens should be displayed to a user as `5.05` (`505 / 10 ** 2`). Tokens usually opt for a value of 18, imitating the relationship between Ether and Wei. This is the default value returned by this function, unless it's overridden. NOTE: This information is only used for _display_ purposes: it in no way affects any of the arithmetic of the contract, including {IERC20-balanceOf} and {IERC20-transfer}."
      },
      "name()": {
        "details": "Returns the name of the token."
      },
      "symbol()": {
        "details": "Returns the symbol of the token, usually a shorter version of the name."
      },
      "totalSupply()": {
        "details": "See {IERC20-totalSupply}."
      },
      "transfer(address,uint256)": {
        "details": "See {IERC20-transfer}. Requirements: - `to` cannot be the zero address. - the caller must have a balance of at least `value`."
      },
      "transferFrom(address,address,uint256)": {
        "details": "See {IERC20-transferFrom}. Skips emitting an {Approval} event indicating an allowance update. This is not required by the ERC. See {xref-ERC20-_approve-address-address-uint256-bool-}[_approve]. NOTE: Does not update the allowance if the current allowance is the maximum `uint256`. Requirements: - `from` and `to` cannot be the zero address. - `from` must have a balance of at least `value`. - the caller must have allowance for ``from``'s tokens of at least `value`."
      }
    },
    "version": 1
  },
  "userdoc": {
    "kind": "user",
    "methods": {},
    "version": 1
  }
}